:10000000E8250020710200006D0200006D02000072
:1000100000000000000000000000000000000000E0
:100020000000000000000000000000006D02000061
:1000300000000000000000006D020000210400002C
:100040006D0200006D0200006D0200006D020000F4
:100050006D0200006D0200006D0200006D020000E4
:100060006D0200006D0200006D0200006D020000D4
:100070006D0200006D0200006D0200006D020000C4
:100080006D0200006D0200006D0200006D020000B4
:100090006D0200006D0200006D0200006D020000A4
:1000A0006D0200006D0200006D0200006D02000094
:1000B0000000000000000000000000000000000040
:1000C0000000000000000000000000000000000030
:1000D0000000000000000000000000000000000020
:1000E00010B5064C2378002B07D1054B002B02D00E
:1000F000044800E000BF0123237010BD300400203D
:100100000000000028140000084B10B5002B03D09D
:100110000749084800E000BF07480368002B00D1EA
:1001200010BD064B002BFBD09847F9E700000000FC
:1001300034040020281400002814000000000000EF
:10014000194B1B78002B09D1184A11785378CB181A
:10015000DBB2537008219C23154AD150124A137800
:100160000133DBB21370114B5B78DBB2F02B04D898
:100170000E4B5B78DBB2092B0AD80C4A13785BB2C2
:100180005B425BB2137011785378CB18DBB25370BB
:10019000054B1B78054A5278DBB2934203D1082104
:1001A0009C23034AD15070474C04002000000020DB
:1001B0000044004110B5C3699B07FCD403680224C6
:1001C000A3430360C369DB07FCD404680123234312
:1001D00003600368DB07FCD4C369DB07FCD4C36995
:1001E0009B07F9D4084B1A430260C3695B07FCD430
:1001F000C0239B0243608181C3699B07FCD40268D2
:1002000002231343036010BD04000040037EDB079C
:10021000FCD589B201857047037E5B07FCD5438B13
:10022000DB0705D4438B9B0702D4438B5B0702D5C6
:100230000122024B1A70008DC0B270474D0400209D
:1002400002491022CB681A42FCD0704700080040D7
:1002500010B5034A034B1A62034B984710BDC046C2
:10026000820015880008004041020000FEE7C046F9
:1002700070B52E4B2E4A9A4203D02E4B2B4A9A42EF
:1002800004D32D4B2D4A9A4210D31EE02C4A294B01
:1002900003339B1A9B0801339B0000222348244907
:1002A0008C58845004329A42FAD1EAE7254A224B0C
:1002B00003339B1A9B0801339B0000221F48002137
:1002C0001418216004329A42FAD11F4AFF211F4BB1
:1002D0008B439360FD3990235B001D4AD1501D482C
:1002E000C3780324A34302221343C370C3780C26AC
:1002F000B34308210B43C370174B987B3025A843A9
:100300000500202028439873987BB04301439973DC
:10031000997BA1430A439A73104A516880230B4387
:1003200053600F4B98470F4B9847FEE700000020A3
:100330002814000030040020E405002030040020D0
:10034000040000203404002000ED00E00000000064
:100350000070004100500041004800410040004151
:100360005D0F00006903000070B5204B1B68012180
:100370001F4A1170013302D100221D4B1A701D4B10
:10038000984762B61C4B9847082188231B4AD150D6
:100390001B4A1C4B1A601C4A1C4B53601C490B6ABD
:1003A0001B021B0AC020000603430B62002393605C
:1003B00007331360134D174C2B68002B0CD10C4BDB
:1003C0001B78002B08D0094B1A68043B196881F38D
:1003D00008880F498B601047A0470028ECD0012007
:1003E0000D4B98470D4CA047FDE7C0460420000088
:1003F0006004002051020000D50A000000440041C2
:1004000050C300005C04002010E000E0E70300009F
:1004100000ED00E0CD0B0000590400006105000074
:1004200010B5044B9847044A1368013B1360034B13
:10043000984710BD410100005C0400203105000018
:1004400010B50C00C3681100200098476422014BCE
:100450001A8010BD50040020012805D1034A044B26
:100460001A600122034B9A707047C0465411000075
:10047000C804002050040020F0B585B0224BDB7882
:10048000002B32D0042901D1046836E0022901D1C1
:10049000048832E004784E0004AB98190B38002E23
:1004A00010D000250F22302713002340092B02D83B
:1004B0003B43037001E037330370240901380135F1
:1004C000B542F1D301AB30221A7048325A704A1C3F
:1004D00052000A2199549E190331F17002320B49DE
:1004E000086819000A4B98470CE0084B1B680A0083
:1004F00001001800064B984704E04E0004AB981921
:100500000B38CEE705B0F0BD50040020C804002031
:100510004104000072B6EFF30883044A13600368D5
:1005200083F30888436818477047C046CC0400200E
:100530000A4B1B889BB2002B04D0084A1388013B4E
:100540009BB21380054B9B889BB2002B04D0034ABF
:100550009388013B9BB293807047C04650040020B3
:10056000F0B557464E464546E0B48CB004A9C04BA2
:100570001C330A0031CB31C231CB31C211CB11C295
:10058000BC4A93685B035B0F9B005958BA4B1960D8
:10059000926893B2B94A13604B43B94A1360002280
:1005A000B84B1A607A32B84B1A70B14B3C33019396
:1005B000B64B1B681B694021B5489847002800D1FD
:1005C00059E26422B34B9A80B34B1860B04AB34BE4
:1005D0001A600022B24B1A60B04C23681B78FF2BC4
:1005E00000D13AE2232B00D008E2AA4BDB78002BA3
:1005F00005D0A64B18680222AA49AB4B9847A24BDC
:100600001B78532B43D1A44B1A68A54B1B689A4205
:1006100021D9A2480168013101600133A04803607B
:10062000D31AA24A1268934202D2A14A136001E08F
:100630009F4B1A60934B18689D4D2A689D4B9847B5
:100640002B6897490A68D2180A6094490A68D21838
:100650000A60994A1370924A1368013B13608F4AEB
:100660001368013B1360944B1978904B1B689942B7
:100670000BD2591A834B1868844B1B689B699847A7
:10068000002802D06422834B9A80C046A5E1522BF9
:100690000BD1864B19687B4B18687C4B1B685B69D8
:1006A000984764227B4B1A8097E14F2B05D1754BFD
:1006B0001B687E4A12681A708FE1482B05D1714B76
:1006C0001B687A4A12681A8087E1572B05D16D4B57
:1006D0001B68764A12681A607FE16F2B05D1694B5F
:1006E00018680121754B984777E1682B08D16F484E
:1006F000644B1B681B8803600221704B98476CE1B8
:10070000772B08D15F4B1B681B6868480360042186
:100710006A4B984761E1472B13D1644B1868684BCB
:100720009847684B1B6883F3088862B6594B9B78DF
:10073000002B00D151E1554B1B681B6806209847E0
:100740004BE1542B09D10122524BDA704F4B186800
:1007500001325449544B98473FE14E2B0DD14D4B3C
:10076000DB78002B05D1494B186802224D494E4BCE
:1007700098470022474BDA702FE1562B4CD1434E5D
:10078000012251493068484DA84703220199306839
:10079000A8474E4F012239003068A84734494031FC
:1007A0000D223068A847306801223900A84700228E
:1007B0003B4B1A60464A394B1A60394819000368A6
:1007C0005A1C02600B685D1C0D601B78002BF6D173
:1007D0002E4E40493068344DA847306801223B49CD
:1007E000A84700222E4B1A603B4A2C4B1A602C481B
:1007F000190003685A1C02600B685D1C0D601B78B1
:10080000002BF6D1214E35493068274DA847306876
:1008100002222449A847E0E0582B1DD1234B196838
:10082000174B1B68994210D2124A2D4B1E88124D4D
:1008300013484B08D3611680137DDB07FCD52B686A
:100840009B00C91803689942F3D3104B1868032220
:100850002449154B9847C0E0592B00D087E0134B33
:100860001D68002D40D1074B1A680A4B9A6077E04B
:100870005411000000400041800400207804002052
:1008800074040020C404002070040020C804002068
:100890008404002050040020680400206C04002020
:1008A0007C040020C411000041040000D00400209A
:1008B000D4040020A50F0000640400207904000087
:1008C00015050000CC040020C8110000CC11000068
:1008D000D1110000D0110000DD110000DC1100007A
:1008E00050110000E8110000AD08674B9F68674B8E
:1008F0001E68674A536880218B435360002D2FD0B8
:100900001000644B1B889A46634B99469C46634B88
:10091000984653460380037DDB07FCD54B461B6896
:10092000032B10D9002D10D0002100237A587250CB
:100930000133624612689208934207D20431AB42F7
:10094000F4D12B0002E0002300E02B00424602809D
:10095000027DD207FCD59A00B618BF18ED1AD8D17F
:100960004F4B186803224F494F4B984735E05A2B9D
:1009700033D14E4B1B68454A1768002B0CD03E0004
:10098000FF1800234A4D19003078A84701000136AE
:10099000B742F9D1050001E000231D00404B186863
:1009A00001224449404B98472B0007220F2529007C
:1009B00019401B0908003030092901DD37310800D2
:1009C00002A95054013AF2D2354E08223068364D11
:1009D000A847306803223849A8477A22374B1A7053
:1009E0000022324B1A60284BDB78002B35D02C4B81
:1009F0001868013232492C4B98472EE01A00303AE1
:100A0000092A06D829490A681201303B13430B60B2
:100A100023E01A00413A052A06D824490A6812013F
:100A2000373B13430B6018E01A00613A052A06D8D9
:100A30001E490A681201573B13430B600DE02C2B33
:100A400006D11A4B114A1968116000221A6004E09D
:100A50001A4A13700022154B1A601A4A13680133A0
:100A6000136019490A6801320A60184A12689342F1
:100A700000D2B2E59CE50023144A13601449124ADF
:100A80001160104A136093E550040020C404002054
:100A900000400041521100008004002004A5FFFF27
:100AA000C8040020EC11000041040000D004002024
:100AB000250C0000F0110000F4110000700400206B
:100AC000F81100007C0400206C0400206804002061
:100AD0008404002010B51E4BD6201A5C01210A4365
:100AE0001A54BB22985C0F24A04398549C5C0320AA
:100AF00020439854D7201C5C21431954985C0F2143
:100B000001409954985C302101439954114A116A6B
:100B100080230B431362104B104A5A805A801A00EC
:100B200053785BB2002BFBDBC42292030C490D48C7
:100B30000D4B984700230D4A13700D4A13700D4A50
:100B400013700D4A13700D4A13700D4A137010BDC7
:100B50000044004100040040000C00401940000027
:100B600080C80000001C0042B5010000D80400202D
:100B700062050020D9040020DC0400206305002069
:100B80006005002010B5C1B20248034B9847012010
:100B900010BDC046001C00420D020000024B187E32
:100BA0004007C00F7047C046001C004210B5044CFF
:100BB000A0470028FCD00348034B984710BDC0460F
:100BC0009D0B0000001C00421902000010B5064BEE
:100BD00098470023002804D0044B98472338434209
:100BE0004341180010BDC0469D0B0000AD0B000036
:100BF000F8B504000F1E06D04618044D2078A8470B
:100C00000134A642FAD13800F8BDC046850B000079
:100C100010B50400024B98472070012010BDC0465B
:100C2000AD0B00000B0A584040000902024BC05AAD
:100C3000414088B27047C046FC110000F0B55F46E5
:100C400056464D464446F0B485B00390894600228E
:100C50004A4B1A70002903D10132494B1A700CE03B
:100C6000484B19800022464B1A700B005B0604D0DB
:100C70000B0080337F3293439946434E3F4D2C0007
:100C8000B0472B78002B0CD0002323703E4B9847A5
:100C9000C0B22378002B05D00022384B1A700026F2
:100CA00063E0C0B2432823D071285DD01528E7D176
:100CB0001EE00022314B1A7057E0FF23184006282F
:100CC00009D1029B0133DBB202934B46803B99462C
:100CD000039B803303934B46002B10D104202B4BF6
:100CE0009847294B98470022254B1A7001263CE073
:100CF00001230293254B9B46224B98461C00012062
:100D0000D847029D2800D847E843C0B2D847039D82
:100D10008026002301931A4B9A462F0043461B88D6
:100D2000002B04D1524612780025002A03D03D78CA
:100D3000013B238001372800144B98470199280074
:100D4000134B98470190013E002EE7D10500000AA1
:100D5000C0B20E4FB847E8B2B8470B4B9847074BA5
:100D60001B78002BA9D0A4E70026300005B03CBCBE
:100D700090469946A246AB46F0BDC04660050020AD
:100D800061050020DA040020AD0B0000850B000097
:100D9000250C0000F0B557464E464546E0B482B0FB
:100DA00007000E1E29D0002400230193174B9A46FA
:100DB000174B9946174B9846D047C5B24B461B7800
:100DC000002B1CD101992800C0470190124B1B88B1
:100DD000002B03D1114B1B78002B08D07B1C3D70DE
:100DE0001F00802E03D10C490A88013A0A80013481
:100DF000A4B2A642E0D1019802E0002000E0012068
:100E000002B01CBC90469946A246F0BDAD0B000056
:100E100060050020250C0000DA0400206105002098
:100E2000F0B557464E46C0B485B000900022434B03
:100E30001A70002903D10132414B1A7004E0414B72
:100E4000198000223E4B1A7064273F4E3F4D4320CD
:100E5000B0473F4C00E0013CA847002802D1002CDD
:100E6000F9D101E0002C03D1013F002FEFD15EE06A
:100E700001239946374F314D374CB8472B78002B1B
:100E800004D000222D4B1A70002750E0FF23184099
:100E9000012802D004283DD03FE0022103A8A0474A
:100EA00080210098A0470190244B1B78002B39D15A
:100EB000284EB047000283B29A46B047504480B2F1
:100EC0001E4B1B78012B2DD0019B83420AD103AB13
:100ED0001B784B4506D14B46DB4303AA5278DBB265
:100EE0009A4203D01820184B98471BE00620164B57
:100EF0009847124B1B78002B04D000220F4B1A701E
:100F0000002714E04B460133DBB29946009B803347
:100F10000093B2E706200C4B98470022084B1A704A
:100F2000012704E0054B1B78002BF6D0E5E73800DD
:100F300005B00CBC91469A46F0BDC0466005002045
:100F400061050020DA040020850B00009D0B0000E5
:100F500000350C00AD0B0000950D000070B50D4E76
:100F60000D4D0024AD1BAD1005D0A300F358013486
:100F70009847A542F9D100F045FA084E084D0024E3
:100F8000AD1BAD1005D0A300F35801349847A5421E
:100F9000F9D170BD101400001014000010140000EE
:100FA0001814000070B50F2A32D90C0004430B004E
:100FB000A40731D115000400103D2D0901352D0184
:100FC00049191E6826605E6866609E68A660DE68D5
:100FD0001033E66010349942F3D10F2345191340C2
:100FE000032B1BD91C1F0023A4080134A400CE58D6
:100FF000EE5004339C42FAD103232D1909191A40EB
:1010000005D00023CC5CEC5401339A42FAD170BD78
:101010000500002AF5D1FAE70500F2E71A00F8E723
:10102000034B10B5002B02D0024800F005F810BDAC
:10103000000000004910000010B50100002300224C
:10104000002000F01BF810BD70B5094B094CE41AE4
:10105000A41009D0084AA518AD00ED182B68013C72
:101060009847043D002CF9D100F0D6F970BDC04678
:101070002414000028140000FFFFFF3FF8B5444689
:101080005F4656464D469B462F4BF0B41C68A42342
:101090005B000500E0580E00904600284BD04368E6
:1010A0001F2B0DDC5C1C002D21D102339B00446002
:1010B0001E5000203CBC90469946A246AB46F8BD67
:1010C000224B002B3CD0C820400000E000BF00288D
:1010D00036D0A42200235200A15843600160A050E2
:1010E00040328350043283500124002DDDD09A0019
:1010F00091468144424688214F467A50C42252008C
:101100009046804442468739994012688A460A438D
:101110009446424661461160842249465F46520029
:101120008F50022DC1D1020055468D32FF32116819
:101130000D431560B9E720004D30FF30E050AEE7B9
:1011400001204042B6E7C046001400000000000045
:1011500002A544A5850B0000AD0B00009D0B00000F
:10116000F10B0000110C00003D0C0000210E0000EE
:1011700008000000100000002000000040000000F7
:1011800080000000000100000002000000040000D8
:10119000322E30005B41726475696E6F3A58595A4D
:1011A0005D0000003A3A686F6C612070616A61729C
:1011B00069746F2073696E20636F6C610D0A202063
:1011C000202000000A0D0000760000002000000032
:1011D0004F637420313720323031390031353A33A2
:1011E000333A313400000000580A0D00590A0D004E
:1011F0005A000000230A0D003E00000000002110EC
:10120000422063308440A550C660E7700881299170
:101210004AA16BB18CC1ADD1CEE1EFF13112100218
:1012200073325222B5529442F772D66239931883C0
:101230007BB35AA3BDD39CC3FFF3DEE362244334E4
:1012400020040114E664C774A44485546AA54BB510
:1012500028850995EEE5CFF5ACC58DD553367226B8
:1012600011163006D776F6669556B4465BB77AA760
:1012700019973887DFF7FEE79DD7BCC7C448E55804
:101280008668A7784008611802282338CCC9EDD9B0
:101290008EE9AFF9488969990AA92BB9F55AD44A58
:1012A000B77A966A711A500A333A122AFDDBDCCB00
:1012B000BFFB9EEB799B588B3BBB1AABA66C877C24
:1012C000E44CC55C222C033C600C411CAEED8FFD50
:1012D000ECCDCDDD2AAD0BBD688D499D977EB66EF8
:1012E000D55EF44E133E322E511E700E9FFFBEEFA0
:1012F000DDDFFCCF1BBF3AAF599F788F8891A98162
:10130000CAB1EBA10CD12DC14EF16FE18010A1004B
:10131000C230E3200450254046706760B98398933B
:10132000FBA3DAB33DC31CD37FE35EF3B10290129B
:10133000F322D2323542145277625672EAB5CBA507
:10134000A89589856EF54FE52CD50DC5E234C324EB
:10135000A01481046674476424540544DBA7FAB7DB
:101360009987B8975FE77EF71DC73CD7D326F2363B
:101370009106B01657667676154634564CD96DC927
:101380000EF92FE9C899E9898AB9ABA9445865488B
:1013900006782768C018E1088238A3287DCB5CDB7B
:1013A0003FEB1EFBF98BD89BBBAB9ABB754A545ADB
:1013B000376A167AF10AD01AB32A923A2EFD0FED47
:1013C0006CDD4DCDAABD8BADE89DC98D267C076C2B
:1013D000645C454CA23C832CE01CC10C1FEF3EFF1B
:1013E0005DCF7CDF9BAFBABFD98FF89F176E367E7B
:1013F000554E745E932EB23ED10EF01E4300000097
:1014000008000020F8B5C046F8BC08BC9E467047EE
:101410002110000009010000F8B5C046F8BC08BC66
:081420009E467047E100000048
:10142800011400000000000000000000F402002089
:101438005C030020C403002000000000000000003E
:101448000000000000000000000000000000000094
:10145800000000000000000000000000FC13000075
:101468000000000000000000000000000000000074
:101478000000000000000000000000000000000064
:101488000000000000000000000000000000000054
:101498000000000000000000000000000000000044
:1014A8000000000000000000000000000000000034
:1014B8000000000000000000000000000000000024
:1014C8000000000000000000000000000000000014
:1014D80001000000000000000E33CDAB34126DE6B1
:1014E800ECDE05000B00000000000000000000001A
:1014F80000000000000000000000000000000000E4
:1015080000000000000000000000000000000000D3
:1015180000000000000000000000000000000000C3
:1015280000000000000000000000000000000000B3
:00000001FF
